{
  "contractName": "Theatre",
  "abi": [
    {
      "constant": true,
      "inputs": [
        {
          "name": "",
          "type": "uint256"
        }
      ],
      "name": "movies",
      "outputs": [
        {
          "name": "",
          "type": "string"
        }
      ],
      "payable": false,
      "stateMutability": "view",
      "type": "function"
    },
    {
      "constant": true,
      "inputs": [],
      "name": "theatre_location",
      "outputs": [
        {
          "name": "",
          "type": "string"
        }
      ],
      "payable": false,
      "stateMutability": "view",
      "type": "function"
    },
    {
      "constant": true,
      "inputs": [],
      "name": "theatre_name",
      "outputs": [
        {
          "name": "",
          "type": "string"
        }
      ],
      "payable": false,
      "stateMutability": "view",
      "type": "function"
    },
    {
      "inputs": [
        {
          "name": "theatrename",
          "type": "string"
        },
        {
          "name": "loc",
          "type": "string"
        }
      ],
      "payable": false,
      "stateMutability": "nonpayable",
      "type": "constructor"
    },
    {
      "anonymous": false,
      "inputs": [
        {
          "indexed": false,
          "name": "sender",
          "type": "address"
        },
        {
          "indexed": false,
          "name": "eventType",
          "type": "string"
        },
        {
          "indexed": false,
          "name": "movie",
          "type": "string"
        }
      ],
      "name": "MovieEvent",
      "type": "event"
    },
    {
      "anonymous": false,
      "inputs": [
        {
          "indexed": false,
          "name": "sender",
          "type": "address"
        },
        {
          "indexed": false,
          "name": "eventType",
          "type": "string"
        },
        {
          "indexed": false,
          "name": "ticket_no",
          "type": "uint8"
        }
      ],
      "name": "TicketEvent",
      "type": "event"
    },
    {
      "anonymous": false,
      "inputs": [
        {
          "indexed": false,
          "name": "sender",
          "type": "address"
        },
        {
          "indexed": false,
          "name": "eventType",
          "type": "string"
        },
        {
          "indexed": false,
          "name": "show_id",
          "type": "uint8"
        }
      ],
      "name": "ShowEvent",
      "type": "event"
    },
    {
      "anonymous": false,
      "inputs": [
        {
          "indexed": false,
          "name": "sender",
          "type": "address"
        },
        {
          "indexed": false,
          "name": "eventType",
          "type": "string"
        },
        {
          "indexed": false,
          "name": "surprise",
          "type": "string"
        }
      ],
      "name": "SurpriseEvent",
      "type": "event"
    },
    {
      "constant": false,
      "inputs": [
        {
          "name": "movie",
          "type": "string"
        }
      ],
      "name": "addMovie",
      "outputs": [
        {
          "name": "movieid",
          "type": "string"
        }
      ],
      "payable": false,
      "stateMutability": "nonpayable",
      "type": "function"
    },
    {
      "constant": false,
      "inputs": [],
      "name": "createNewShow",
      "outputs": [
        {
          "name": "show_id",
          "type": "uint8"
        }
      ],
      "payable": false,
      "stateMutability": "nonpayable",
      "type": "function"
    },
    {
      "constant": false,
      "inputs": [
        {
          "name": "movie",
          "type": "string"
        },
        {
          "name": "window",
          "type": "uint8"
        },
        {
          "name": "show",
          "type": "uint8"
        },
        {
          "name": "cname",
          "type": "string"
        },
        {
          "name": "cphone",
          "type": "string"
        },
        {
          "name": "persons",
          "type": "uint8"
        }
      ],
      "name": "bookTicket",
      "outputs": [
        {
          "name": "ticketid",
          "type": "uint8"
        }
      ],
      "payable": false,
      "stateMutability": "nonpayable",
      "type": "function"
    },
    {
      "constant": true,
      "inputs": [
        {
          "name": "tno",
          "type": "uint8"
        }
      ],
      "name": "getTicket",
      "outputs": [
        {
          "name": "customer",
          "type": "string"
        },
        {
          "name": "phone",
          "type": "string"
        },
        {
          "name": "show",
          "type": "uint8"
        },
        {
          "name": "movie",
          "type": "string"
        },
        {
          "name": "persons",
          "type": "uint8"
        },
        {
          "name": "amount",
          "type": "uint8"
        }
      ],
      "payable": false,
      "stateMutability": "view",
      "type": "function"
    },
    {
      "constant": false,
      "inputs": [
        {
          "name": "window",
          "type": "uint8"
        },
        {
          "name": "ticketNo",
          "type": "uint8"
        }
      ],
      "name": "claimSurprise",
      "outputs": [
        {
          "name": "message",
          "type": "string"
        }
      ],
      "payable": false,
      "stateMutability": "nonpayable",
      "type": "function"
    },
    {
      "constant": false,
      "inputs": [
        {
          "name": "ticketNo",
          "type": "uint8"
        }
      ],
      "name": "exchangeSurprise",
      "outputs": [
        {
          "name": "message",
          "type": "string"
        }
      ],
      "payable": false,
      "stateMutability": "nonpayable",
      "type": "function"
    }
  ],
  "bytecode": "0x60806040523480156200001157600080fd5b50604051620020ff380380620020ff833981018060405281019080805182019291906020018051820192919050505081600190805190602001906200005892919062000106565b506005600360006101000a81548160ff021916908360ff16021790555080600290805190602001906200008d92919062000106565b506005600660026101000a81548160ff021916908360ff1602179055506064600860006101000a81548160ff021916908360ff16021790555060c8600860016101000a81548160ff021916908360ff1602179055506004600860026101000a81548160ff021916908360ff1602179055505050620001b5565b828054600181600116156101000203166002900490600052602060002090601f016020900481019282601f106200014957805160ff19168380011785556200017a565b828001600101855582156200017a579182015b82811115620001795782518255916020019190600101906200015c565b5b5090506200018991906200018d565b5090565b620001b291905b80821115620001ae57600081600090555060010162000194565b5090565b90565b611f3a80620001c56000396000f300608060405260043610610099576000357c0100000000000000000000000000000000000000000000000000000000900463ffffffff16806317d916471461009e578063404ebf6c146100cf57806344affe64146101755780634b1bebc81461021e57806355be6bdc146102d457806360fcf32f1461036457806372511e47146103f4578063cffcf5f0146104d6578063ef6f878c1461060c575b600080fd5b3480156100aa57600080fd5b506100b36107bc565b604051808260ff1660ff16815260200191505060405180910390f35b3480156100db57600080fd5b506100fa60048036038101908080359060200190929190505050610b39565b6040518080602001828103825283818151815260200191508051906020019080838360005b8381101561013a57808201518184015260208101905061011f565b50505050905090810190601f1680156101675780820380516001836020036101000a031916815260200191505b509250505060405180910390f35b34801561018157600080fd5b506101a3600480360381019080803560ff169060200190929190505050610bf4565b6040518080602001828103825283818151815260200191508051906020019080838360005b838110156101e35780820151818401526020810190506101c8565b50505050905090810190601f1680156102105780820380516001836020036101000a031916815260200191505b509250505060405180910390f35b34801561022a57600080fd5b50610259600480360381019080803560ff169060200190929190803560ff169060200190929190505050610e8d565b6040518080602001828103825283818151815260200191508051906020019080838360005b8381101561029957808201518184015260208101905061027e565b50505050905090810190601f1680156102c65780820380516001836020036101000a031916815260200191505b509250505060405180910390f35b3480156102e057600080fd5b506102e961115f565b6040518080602001828103825283818151815260200191508051906020019080838360005b8381101561032957808201518184015260208101905061030e565b50505050905090810190601f1680156103565780820380516001836020036101000a031916815260200191505b509250505060405180910390f35b34801561037057600080fd5b506103796111fd565b6040518080602001828103825283818151815260200191508051906020019080838360005b838110156103b957808201518184015260208101905061039e565b50505050905090810190601f1680156103e65780820380516001836020036101000a031916815260200191505b509250505060405180910390f35b34801561040057600080fd5b5061045b600480360381019080803590602001908201803590602001908080601f016020809104026020016040519081016040528093929190818152602001838380828437820191505050505050919291929050505061129b565b6040518080602001828103825283818151815260200191508051906020019080838360005b8381101561049b578082015181840152602081019050610480565b50505050905090810190601f1680156104c85780820380516001836020036101000a031916815260200191505b509250505060405180910390f35b3480156104e257600080fd5b506105f0600480360381019080803590602001908201803590602001908080601f0160208091040260200160405190810160405280939291908181526020018383808284378201915050505050509192919290803560ff169060200190929190803560ff169060200190929190803590602001908201803590602001908080601f0160208091040260200160405190810160405280939291908181526020018383808284378201915050505050509192919290803590602001908201803590602001908080601f0160208091040260200160405190810160405280939291908181526020018383808284378201915050505050509192919290803560ff16906020019092919050505061147e565b604051808260ff1660ff16815260200191505060405180910390f35b34801561061857600080fd5b5061063a600480360381019080803560ff169060200190929190505050611a62565b60405180806020018060200187600381111561065257fe5b60ff168152602001806020018660ff1660ff1681526020018560ff1660ff16815260200184810384528a818151815260200191508051906020019080838360005b838110156106ae578082015181840152602081019050610693565b50505050905090810190601f1680156106db5780820380516001836020036101000a031916815260200191505b50848103835289818151815260200191508051906020019080838360005b838110156107145780820151818401526020810190506106f9565b50505050905090810190601f1680156107415780820380516001836020036101000a031916815260200191505b50848103825287818151815260200191508051906020019080838360005b8381101561077a57808201518184015260208101905061075f565b50505050905090810190601f1680156107a75780820380516001836020036101000a031916815260200191505b50995050505050505050505060405180910390f35b60006107c6611d44565b600080600660019054906101000a900460ff1693506040805190810160405280600060038111156107f357fe5b8152602001600060ff16815250925082600560006006600181819054906101000a900460ff168092919060010191906101000a81548160ff021916908360ff16021790555060ff1660ff16815260200190815260200160002060008201518160000160006101000a81548160ff0219169083600381111561087057fe5b021790555060208201518160000160016101000a81548160ff021916908360ff16021790555090505082600760008201518160000160006101000a81548160ff021916908360038111156108c057fe5b021790555060208201518160000160016101000a81548160ff021916908360ff1602179055509050505b6000805490508260ff161015610a895760008260ff1681548110151561090c57fe5b9060005260206000200190506040805190810160405280828054600181600116156101000203166002900480601f0160208091040260200160405190810160405280929190818152602001828054600181600116156101000203166002900480156109b85780601f1061098d576101008083540402835291602001916109b8565b820191906000526020600020905b81548152906001019060200180831161099b57829003601f168201915b50505050508152602001600060ff168152506009826040518082805460018160011615610100020316600290048015610a285780601f10610a06576101008083540402835291820191610a28565b820191906000526020600020905b815481529060010190602001808311610a14575b505091505090815260200160405180910390206000820151816000019080519060200190610a57929190611d6c565b5060208201518160010160006101000a81548160ff021916908360ff16021790555090505081806001019250506108ea565b7fa17662dedade17f30ab645e07386b35802217a23da4dfb772d270f59e6efaa823385604051808373ffffffffffffffffffffffffffffffffffffffff1673ffffffffffffffffffffffffffffffffffffffff168152602001806020018360ff1660ff168152602001828103825260078152602001807f6372656174656400000000000000000000000000000000000000000000000000815250602001935050505060405180910390a150505090565b600081815481101515610b4857fe5b906000526020600020016000915090508054600181600116156101000203166002900480601f016020809104026020016040519081016040528092919081815260200182805460018160011615610100020316600290048015610bec5780601f10610bc157610100808354040283529160200191610bec565b820191906000526020600020905b815481529060010190602001808311610bcf57829003601f168201915b505050505081565b60606000600460008460ff1660ff16815260200190815260200160002090508060050160059054906101000a900460ff1615610c8e57606060405190810160405280603b81526020017f4f75722073797374656d2069732073686f77696e67207468617420776520686181526020017f766520616c72656164792073657276656420796f752c207369722e00000000008152509150610d7e565b8060050160049054906101000a900460ff161515610d0a57606060405190810160405280602381526020017f596f7520617265206e6f7420656c696769626c6520666f722074686973206f6681526020017f66657200000000000000000000000000000000000000000000000000000000008152509150610d7d565b60018160050160036101000a81548160ff02191690831515021790555060018160050160056101000a81548160ff0219169083151502179055506040805190810160405280601981526020017f57652061726520686170707920746f20736572766520796f750000000000000081525091505b5b7fcd9b2fcb1aa965e79f4d6ce9885e3aeb60a3b137aa04358954a143432206fde73383604051808373ffffffffffffffffffffffffffffffffffffffff1673ffffffffffffffffffffffffffffffffffffffff1681526020018060200180602001838103835260078152602001807f636c61696d656400000000000000000000000000000000000000000000000000815250602001838103825284818151815260200191508051906020019080838360005b83811015610e4b578082015181840152602081019050610e30565b50505050905090810190601f168015610e785780820380516001836020036101000a031916815260200191505b5094505050505060405180910390a150919050565b6060600060018460ff16141515610f32576040517f08c379a00000000000000000000000000000000000000000000000000000000081526004018080602001828103825260218152602001807f706c6561736520636f6c6c6563742074686573652061742077696e646f77203181526020017f2e0000000000000000000000000000000000000000000000000000000000000081525060400191505060405180910390fd5b600460008460ff1660ff16815260200190815260200160002090508060050160039054906101000a900460ff1615610fc857606060405190810160405280603b81526020017f4f75722073797374656d2069732073686f77696e67207468617420776520686181526020017f766520616c72656164792073657276656420796f752c207369722e0000000000815250915061104f565b60018160050160036101000a81548160ff021916908315150217905550600060028460ff16811515610ff657fe5b0660ff16148160050160046101000a81548160ff0219169083151502179055506040805190810160405280601981526020017f57652061726520686170707920746f20736572766520796f750000000000000081525091505b7fcd9b2fcb1aa965e79f4d6ce9885e3aeb60a3b137aa04358954a143432206fde73383604051808373ffffffffffffffffffffffffffffffffffffffff1673ffffffffffffffffffffffffffffffffffffffff1681526020018060200180602001838103835260078152602001807f636c61696d656400000000000000000000000000000000000000000000000000815250602001838103825284818151815260200191508051906020019080838360005b8381101561111c578082015181840152602081019050611101565b50505050905090810190601f1680156111495780820380516001836020036101000a031916815260200191505b5094505050505060405180910390a15092915050565b60028054600181600116156101000203166002900480601f0160208091040260200160405190810160405280929190818152602001828054600181600116156101000203166002900480156111f55780601f106111ca576101008083540402835291602001916111f5565b820191906000526020600020905b8154815290600101906020018083116111d857829003601f168201915b505050505081565b60018054600181600116156101000203166002900480601f0160208091040260200160405190810160405280929190818152602001828054600181600116156101000203166002900480156112935780601f1061126857610100808354040283529160200191611293565b820191906000526020600020905b81548152906001019060200180831161127657829003601f168201915b505050505081565b6060600360009054906101000a900460ff1660ff1660008054905010151561132b576040517f08c379a00000000000000000000000000000000000000000000000000000000081526004018080602001828103825260188152602001807f57652063616e6e6f7420616464206d6f7265206d6f766965000000000000000081525060200191505060405180910390fd5b819050600082908060018154018082558091505090600182039060005260206000200160009091929091909150908051906020019061136b929190611dec565b50507f0db7565fdf52be847c3efc0b42e272a08ecc3b71d6e541888eed3f639ec8982a3383604051808373ffffffffffffffffffffffffffffffffffffffff1673ffffffffffffffffffffffffffffffffffffffff1681526020018060200180602001838103835260058152602001807f6164646564000000000000000000000000000000000000000000000000000000815250602001838103825284818151815260200191508051906020019080838360005b8381101561143a57808201518184015260208101905061141f565b50505050905090810190601f1680156114675780820380516001836020036101000a031916815260200191505b5094505050505060405180910390a1809050919050565b6000611488611e6c565b60008860646009826040518082805190602001908083835b6020831015156114c557805182526020820191506020810190506020830392506114a0565b6001836020036101000a038019825116818451168082178552505050505050905001915050908152602001604051809103902060010160009054906101000a900460ff1660ff161015156115a7576040517f08c379a000000000000000000000000000000000000000000000000000000000815260040180806020018281038252602e8152602001807f5765206172652066756c6c207269676874206e6f772c20706c6561736520747281526020017f7920696e206e6578742073686f7700000000000000000000000000000000000081525060400191505060405180910390fd5b88600860029054906101000a900460ff1660ff168160ff1611151515611635576040517f08c379a00000000000000000000000000000000000000000000000000000000081526004018080602001828103825260158152602001807f576520617265206f7574206f662077696e646f772e000000000000000000000081525060200191505060405180910390fd5b600660009054906101000a900460ff16945061016060405190810160405280600660009054906101000a900460ff1660ff1681526020018a600381111561167857fe5b81526020018981526020018881526020018c81526020016000600281111561169c57fe5b81526020018760ff168152602001600660029054906101000a900460ff16880260ff168152602001600015158152602001600015158152602001600015158152509350600860019054906101000a900460ff1660ff16600760000160019054906101000a900460ff1660ff16111515611722576001846101200190151590811515815250505b8560098c6040518082805190602001908083835b60208310151561175b5780518252602082019150602081019050602083039250611736565b6001836020036101000a038019825116818451168082178552505050505050905001915050908152602001604051809103902060010160008282829054906101000a900460ff160192506101000a81548160ff021916908360ff1602179055506007600001600181819054906101000a900460ff168092919060010191906101000a81548160ff021916908360ff160217905550508360046000600660009054906101000a900460ff1660ff1660ff1681526020019081526020016000206000820151816000015560208201518160010160006101000a81548160ff0219169083600381111561184757fe5b02179055506040820151816002019080519060200190611868929190611d6c565b506060820151816003019080519060200190611885929190611d6c565b5060808201518160040190805190602001906118a2929190611d6c565b5060a08201518160050160006101000a81548160ff021916908360028111156118c757fe5b021790555060c08201518160050160016101000a81548160ff021916908360ff16021790555060e08201518160050160026101000a81548160ff021916908360ff1602179055506101008201518160050160036101000a81548160ff0219169083151502179055506101208201518160050160046101000a81548160ff0219169083151502179055506101408201518160050160056101000a81548160ff0219169083151502179055509050506006600081819054906101000a900460ff168092919060010191906101000a81548160ff021916908360ff16021790555092507f5aa0c3bd20ea3da9175bebf22e5bfda90b0ed814bb523b9ff2f7f820fcae58673384604051808373ffffffffffffffffffffffffffffffffffffffff1673ffffffffffffffffffffffffffffffffffffffff168152602001806020018360ff1660ff168152602001828103825260068152602001807f626f6f6b65640000000000000000000000000000000000000000000000000000815250602001935050505060405180910390a1829450505050509695505050505050565b606080600060606000806000878060ff16600660009054906101000a900460ff1660ff1610151515611afc576040517f08c379a00000000000000000000000000000000000000000000000000000000081526004018080602001828103825260198152602001807f54686973207469636b6574206973206e6f742076616c69642e0000000000000081525060200191505060405180910390fd5b600460008a60ff1660ff168152602001908152602001600020915081600201826003018360010160009054906101000a900460ff16846004018560050160019054906101000a900460ff168660050160029054906101000a900460ff16858054600181600116156101000203166002900480601f016020809104026020016040519081016040528092919081815260200182805460018160011615610100020316600290048015611bee5780601f10611bc357610100808354040283529160200191611bee565b820191906000526020600020905b815481529060010190602001808311611bd157829003601f168201915b50505050509550848054600181600116156101000203166002900480601f016020809104026020016040519081016040528092919081815260200182805460018160011615610100020316600290048015611c8a5780601f10611c5f57610100808354040283529160200191611c8a565b820191906000526020600020905b815481529060010190602001808311611c6d57829003601f168201915b50505050509450828054600181600116156101000203166002900480601f016020809104026020016040519081016040528092919081815260200182805460018160011615610100020316600290048015611d265780601f10611cfb57610100808354040283529160200191611d26565b820191906000526020600020905b815481529060010190602001808311611d0957829003601f168201915b50505050509250975097509750975097509750505091939550919395565b604080519081016040528060006003811115611d5c57fe5b8152602001600060ff1681525090565b828054600181600116156101000203166002900490600052602060002090601f016020900481019282601f10611dad57805160ff1916838001178555611ddb565b82800160010185558215611ddb579182015b82811115611dda578251825591602001919060010190611dbf565b5b509050611de89190611ee9565b5090565b828054600181600116156101000203166002900490600052602060002090601f016020900481019282601f10611e2d57805160ff1916838001178555611e5b565b82800160010185558215611e5b579182015b82811115611e5a578251825591602001919060010190611e3f565b5b509050611e689190611ee9565b5090565b610160604051908101604052806000815260200160006003811115611e8d57fe5b815260200160608152602001606081526020016060815260200160006002811115611eb457fe5b8152602001600060ff168152602001600060ff1681526020016000151581526020016000151581526020016000151581525090565b611f0b91905b80821115611f07576000816000905550600101611eef565b5090565b905600a165627a7a72305820611ee9ba18d724f43d387ac32c333c426225724844f9cdd82e8db33616fdfc650029",
  "source": "pragma solidity ^0.4.5;\n\ncontract Theatre {\n    enum ShowType { morning, afternoon, evening, night } //4 shows each day\n    enum SurpriseType { none, water, soda }\n    event MovieEvent(address sender, string eventType, string movie);\n    event TicketEvent(address sender, string eventType, uint8 ticket_no);\n    event ShowEvent(address sender, string eventType, uint8 show_id);\n    event SurpriseEvent(address sender, string eventType, string surprise);\n\n    struct Ticket {\n        //below information will be printed on ticket, and can be later varified against a request for same\n        uint ticketId;                          //this can be later changed to hold any uuid or other unique number\n        ShowType showType;                      //which show\n        string customer_name;                   //customer name\n        string customer_phone;                  //customer phone\n        string movie_name;                      //movie name\n        SurpriseType surprise;                  //early bird or other kind of offer\n        //uint8 datetime;                       //movie day, here it is for current session\n        uint8 personCount;                      //for how many persons\n        uint8 totalAmount;                      //total amount\n        bool surpriseCollected;                 //water and popcorn collected\n        bool surpriseExchangeEligible;          //eligible for water soda exchange\n        bool surpriseExchanged;                 //exchange attempted\n        //uint8 [] seats;                       //seats occupied by booking, but we would assume here that it would be in sequence here\n    }\n    \n    struct Screen {\n        string movie;                           //movie name\n        uint8 seats;                            //100 here\n    }\n    \n    struct Show {\n        ShowType showType;\n        uint8 tickets;                          //for early bird and/or same offer\n        \n    } \n\n    string[] public movies;\n    string public theatre_name;                 //theatre name\n    string public theatre_location;             //theatre address\n    uint8  movie_capacity;               //how many movies it can accomodate, here it would be 5 menas 5 movies\n    mapping (uint8 => Ticket) tickets;     //tickets database\n    mapping (uint8 => Show) shows;         //show database //both tickets and show can be combined to optimize storage\n    uint8  ticketCntr;                   //to hold totalTickets, can be wiped off as soon as time expires\n    uint8  showCntr;                     //to hold show counter\n    uint8  ticketAmount;                 //ticket charges\n    Show   currentShow;                  //ease of access to current show object \n    uint8  seat_capacity;                //seat capacity in each screen/room\n    uint8  earlyBirdCounts;              //soda quantity in each show\n    uint8  windows;                      //available windows\n    mapping (string => Screen) screens;       //no of screens\n    \n    constructor(string theatrename, string loc) public {\n        theatre_name = theatrename;\n        movie_capacity = 5;                     //5 movies can run\n        theatre_location = loc;                 //theatre location\n        ticketAmount = 5;                       //$\n        seat_capacity = 100;                    //seat capacity\n        earlyBirdCounts = 200;                  //first 200 customers will get soda exchanged with water\n        windows = 4;                            //we have 4 windows right now\n    }\n    \n    modifier validTicket(uint8 tno) {\n        require(ticketCntr >= tno, \"This ticket is not valid.\");\n        _;\n    }\n\n    modifier seatsAvailable(string movie) {\n        require(screens[movie].seats < 100, \"We are full right now, please try in next show\");\n        _;\n    }\n\n    modifier validWindow(uint8 window) {\n        require(window <= windows, \"We are out of window.\");\n        _;\n    }\n\n    modifier canAddMovie() {\n        require(movies.length < movie_capacity, \"We cannot add more movie\");\n        _;\n    }\n\n    function addMovie(string movie) public canAddMovie returns(string movieid) {\n        movieid = movie;\n        movies.push(movie);\n        emit MovieEvent(msg.sender,\"added\", movie);\n        return movieid;\n    }\n\n    function createNewShow() public returns (uint8 show_id){\n        show_id = showCntr;\n        Show memory show = Show({\n            showType: ShowType.morning,\n            tickets: 0\n        });\n        shows[showCntr++] = show;\n        currentShow = show;\n        for(uint8 movieIndex; movieIndex < movies.length; movieIndex++) {\n            string storage tempMovie = movies[movieIndex];\n            screens[tempMovie] = Screen(tempMovie, 0);\n        }\n        emit ShowEvent(msg.sender, \"created\", show_id);\n    }\n\n    function bookTicket(string movie, uint8 window, ShowType show, string cname, string cphone, uint8 persons) public \n        seatsAvailable(movie)\n        validWindow(window)\n        returns (uint8 ticketid) {\n        ticketid = ticketCntr;\n        Ticket memory ticket = Ticket({\n            ticketId: ticketCntr,\n            showType: show,\n            customer_name: cname,\n            customer_phone: cphone,\n            movie_name: movie,\n            surprise: SurpriseType.none,\n            //datetime: now,\n            personCount: persons,\n            totalAmount: persons * ticketAmount,\n            surpriseCollected: false,\n            surpriseExchangeEligible: false,\n            surpriseExchanged: false\n        });\n\n        if(currentShow.tickets <= earlyBirdCounts) {\n            //early bird offer eligible for first 200 customers\n            ticket.surpriseExchangeEligible = true;\n        }\n        screens[movie].seats += persons;\n        currentShow.tickets++;\n        tickets[ticketCntr] = ticket;\n        uint8 tempTicket = ticketCntr++;\n        emit TicketEvent(msg.sender, \"booked\", tempTicket);\n        return tempTicket;\n    }\n    \n    function getTicket(uint8 tno) public \n        validTicket(tno) \n        view \n        returns (string customer, string phone, ShowType show, string movie, uint8 persons, uint8 amount) \n    {\n        Ticket storage temp = tickets[tno];\n        return (temp.customer_name, temp.customer_phone, temp.showType, temp.movie_name, temp.personCount, temp.totalAmount);\n    }\n    \n    function claimSurprise(uint8 window, uint8 ticketNo) public returns (string message){\n        //customer will come to window 1 and collect water bottle and popcorn\n        //this method will be called by window manager, who would scan the ticket\n        //and after scanning, he can enter ticket detail and verify ticket validity\n        //here we are passing ticket no for simplicity.\n        require(window == 1, \"please collect these at window 1.\");\n        Ticket storage ticket = tickets[ticketNo];\n        if(ticket.surpriseCollected) {\n            message = \"Our system is showing that we have already served you, sir.\";\n        } \n        else {\n            //offer water bottle and pop corn to customer and mark the field\n            ticket.surpriseCollected = true;\n            //soda exchange logic\n            //lets take the ticket no as a random number \n            ticket.surpriseExchangeEligible = (ticketNo % 2 == 0);\n            message = \"We are happy to serve you\";\n        }\n        emit SurpriseEvent(msg.sender, \"claimed\", message);\n    }\n\n    function exchangeSurprise(uint8 ticketNo) public returns (string message) {\n        //customer will come to cafeteria and get the water exchanged for soda\n        //this method will be called by cafeteria manager, who would scan the ticket\n        //and after scanning, he can enter ticket detail and verify ticket validity\n        //here we are passing ticket no for simplicity.\n        Ticket storage ticket = tickets[ticketNo];\n        if(ticket.surpriseExchanged) {\n            message = \"Our system is showing that we have already served you, sir.\";\n        } else if (!ticket.surpriseExchangeEligible) {\n            message = \"You are not eligible for this offer\";\n        }\n        else {\n            //offer soda and mark the field\n            ticket.surpriseCollected = true;\n            //soda exchange logic\n            //lets take the ticket no as a random number \n            ticket.surpriseExchanged = true;\n            message = \"We are happy to serve you\";\n        }\n        emit SurpriseEvent(msg.sender, \"claimed\", message);\n    }\n}\n\ncontract MovieBooking {\n    //this will support multiple theatres\n    mapping (string => Theatre) theatres;\n\n    function createTheater(string theatreName, string location) public {\n        Theatre theatre = new Theatre(theatreName, location);\n        theatres[theatreName] = theatre;\n    }\n\n    function addMovie(string theatre, string movie) public {\n        theatres[theatre].addMovie(movie);\n    }\n\n    function createShow(string theatre) public {\n        theatres[theatre].createNewShow();\n    }\n\n    function bookTicket(string theatre, string movie, uint8 window, Theatre.ShowType show, string cname, string cphone, uint8 persons) public {\n        theatres[theatre].bookTicket(movie, window, show, cname, cphone, persons);\n    }\n}",
  "sourcePath": "/Users/brajesh.jaishwal/Desktop/mac/blockchain-practices/ethereum/bookmyshow/contracts/Movie.sol",
  "compiler": {
    "name": "solc",
    "version": "0.4.25+commit.59dbf8f1.Emscripten.clang"
  },
  "schemaVersion": "3.0.0-beta.1",
  "updatedAt": "2018-11-04T08:01:04.686Z"
}