{
  "contractName": "Theatre",
  "abi": [
    {
      "constant": true,
      "inputs": [
        {
          "name": "",
          "type": "uint256"
        }
      ],
      "name": "movies",
      "outputs": [
        {
          "name": "",
          "type": "string"
        }
      ],
      "payable": false,
      "stateMutability": "view",
      "type": "function"
    },
    {
      "constant": true,
      "inputs": [],
      "name": "theatre_location",
      "outputs": [
        {
          "name": "",
          "type": "string"
        }
      ],
      "payable": false,
      "stateMutability": "view",
      "type": "function"
    },
    {
      "constant": true,
      "inputs": [],
      "name": "theatre_name",
      "outputs": [
        {
          "name": "",
          "type": "string"
        }
      ],
      "payable": false,
      "stateMutability": "view",
      "type": "function"
    },
    {
      "inputs": [
        {
          "name": "theatrename",
          "type": "string"
        },
        {
          "name": "loc",
          "type": "string"
        }
      ],
      "payable": false,
      "stateMutability": "nonpayable",
      "type": "constructor"
    },
    {
      "anonymous": false,
      "inputs": [
        {
          "indexed": false,
          "name": "sender",
          "type": "address"
        },
        {
          "indexed": false,
          "name": "eventType",
          "type": "string"
        },
        {
          "indexed": false,
          "name": "movie",
          "type": "string"
        }
      ],
      "name": "MovieEvent",
      "type": "event"
    },
    {
      "anonymous": false,
      "inputs": [
        {
          "indexed": false,
          "name": "sender",
          "type": "address"
        },
        {
          "indexed": false,
          "name": "eventType",
          "type": "string"
        },
        {
          "indexed": false,
          "name": "ticket_no",
          "type": "uint8"
        }
      ],
      "name": "TicketEvent",
      "type": "event"
    },
    {
      "constant": false,
      "inputs": [
        {
          "name": "movie",
          "type": "string"
        }
      ],
      "name": "addMovie",
      "outputs": [],
      "payable": false,
      "stateMutability": "nonpayable",
      "type": "function"
    },
    {
      "constant": false,
      "inputs": [],
      "name": "createNewShow",
      "outputs": [],
      "payable": false,
      "stateMutability": "nonpayable",
      "type": "function"
    },
    {
      "constant": false,
      "inputs": [
        {
          "name": "movie",
          "type": "string"
        },
        {
          "name": "window",
          "type": "uint8"
        },
        {
          "name": "show",
          "type": "uint8"
        },
        {
          "name": "cname",
          "type": "string"
        },
        {
          "name": "cphone",
          "type": "string"
        },
        {
          "name": "persons",
          "type": "uint8"
        }
      ],
      "name": "bookTicket",
      "outputs": [
        {
          "name": "",
          "type": "uint8"
        }
      ],
      "payable": false,
      "stateMutability": "nonpayable",
      "type": "function"
    },
    {
      "constant": false,
      "inputs": [
        {
          "name": "window",
          "type": "uint8"
        },
        {
          "name": "ticketNo",
          "type": "uint8"
        }
      ],
      "name": "claimSurprise",
      "outputs": [
        {
          "name": "",
          "type": "string"
        }
      ],
      "payable": false,
      "stateMutability": "nonpayable",
      "type": "function"
    },
    {
      "constant": false,
      "inputs": [
        {
          "name": "ticketNo",
          "type": "uint8"
        }
      ],
      "name": "exchangeSurprise",
      "outputs": [
        {
          "name": "",
          "type": "string"
        }
      ],
      "payable": false,
      "stateMutability": "nonpayable",
      "type": "function"
    }
  ],
  "bytecode": "0x60806040523480156200001157600080fd5b50604051620017e0380380620017e0833981018060405281019080805182019291906020018051820192919050505081600190805190602001906200005892919062000106565b506005600360006101000a81548160ff021916908360ff16021790555080600290805190602001906200008d92919062000106565b506005600660026101000a81548160ff021916908360ff1602179055506064600960006101000a81548160ff021916908360ff16021790555060c8600960016101000a81548160ff021916908360ff1602179055506004600960026101000a81548160ff021916908360ff1602179055505050620001b5565b828054600181600116156101000203166002900490600052602060002090601f016020900481019282601f106200014957805160ff19168380011785556200017a565b828001600101855582156200017a579182015b82811115620001795782518255916020019190600101906200015c565b5b5090506200018991906200018d565b5090565b620001b291905b80821115620001ae57600081600090555060010162000194565b5090565b90565b61161b80620001c56000396000f30060806040526004361061008e576000357c0100000000000000000000000000000000000000000000000000000000900463ffffffff16806317d9164714610093578063404ebf6c146100aa57806344affe64146101505780634b1bebc8146101f957806355be6bdc146102af57806360fcf32f1461033f57806372511e47146103cf578063cffcf5f014610438575b600080fd5b34801561009f57600080fd5b506100a861056e565b005b3480156100b657600080fd5b506100d5600480360381019080803590602001909291905050506107e5565b6040518080602001828103825283818151815260200191508051906020019080838360005b838110156101155780820151818401526020810190506100fa565b50505050905090810190601f1680156101425780820380516001836020036101000a031916815260200191505b509250505060405180910390f35b34801561015c57600080fd5b5061017e600480360381019080803560ff1690602001909291905050506108a0565b6040518080602001828103825283818151815260200191508051906020019080838360005b838110156101be5780820151818401526020810190506101a3565b50505050905090810190601f1680156101eb5780820380516001836020036101000a031916815260200191505b509250505060405180910390f35b34801561020557600080fd5b50610234600480360381019080803560ff169060200190929190803560ff169060200190929190505050610a2f565b6040518080602001828103825283818151815260200191508051906020019080838360005b83811015610274578082015181840152602081019050610259565b50505050905090810190601f1680156102a15780820380516001836020036101000a031916815260200191505b509250505060405180910390f35b3480156102bb57600080fd5b506102c4610bf8565b6040518080602001828103825283818151815260200191508051906020019080838360005b838110156103045780820151818401526020810190506102e9565b50505050905090810190601f1680156103315780820380516001836020036101000a031916815260200191505b509250505060405180910390f35b34801561034b57600080fd5b50610354610c96565b6040518080602001828103825283818151815260200191508051906020019080838360005b83811015610394578082015181840152602081019050610379565b50505050905090810190601f1680156103c15780820380516001836020036101000a031916815260200191505b509250505060405180910390f35b3480156103db57600080fd5b50610436600480360381019080803590602001908201803590602001908080601f0160208091040260200160405190810160405280939291908181526020018383808284378201915050505050509192919290505050610d34565b005b34801561044457600080fd5b50610552600480360381019080803590602001908201803590602001908080601f0160208091040260200160405190810160405280939291908181526020018383808284378201915050505050509192919290803560ff169060200190929190803560ff169060200190929190803590602001908201803590602001908080601f0160208091040260200160405190810160405280939291908181526020018383808284378201915050505050509192919290803590602001908201803590602001908080601f0160208091040260200160405190810160405280939291908181526020018383808284378201915050505050509192919290803560ff169060200190929190505050610f0d565b604051808260ff1660ff16815260200191505060405180910390f35b6000806000600560006006600181819054906101000a900460ff1660010191906101000a81548160ff021916908360ff160217905560ff1660ff16815260200190815260200160002092505b600360009054906101000a900460ff1660ff168260ff1610156107765760008260ff168154811015156105e957fe5b9060005260206000200190506040805190810160405280828054600181600116156101000203166002900480601f0160208091040260200160405190810160405280929190818152602001828054600181600116156101000203166002900480156106955780601f1061066a57610100808354040283529160200191610695565b820191906000526020600020905b81548152906001019060200180831161067857829003601f168201915b50505050508152602001600960009054906101000a900460ff1660ff16815250836001018260405180828054600181600116156101000203166002900480156107155780601f106106f3576101008083540402835291820191610715565b820191906000526020600020905b815481529060010190602001808311610701575b50509150509081526020016040518091039020600082015181600001908051906020019061074492919061144d565b5060208201518160010160006101000a81548160ff021916908360ff16021790555090505081806001019250506105ba565b8260076000820160009054906101000a900460ff168160000160006101000a81548160ff021916908360038111156107aa57fe5b02179055506000820160019054906101000a900460ff168160000160016101000a81548160ff021916908360ff160217905550905050505050565b6000818154811015156107f457fe5b906000526020600020016000915090508054600181600116156101000203166002900480601f0160208091040260200160405190810160405280929190818152602001828054600181600116156101000203166002900480156108985780601f1061086d57610100808354040283529160200191610898565b820191906000526020600020905b81548152906001019060200180831161087b57829003601f168201915b505050505081565b60606000600460008460ff1660ff16815260200190815260200160002090508060050160059054906101000a900460ff161561093a57606060405190810160405280603b81526020017f4f75722073797374656d2069732073686f77696e67207468617420776520686181526020017f766520616c72656164792073657276656420796f752c207369722e00000000008152509150610a29565b8060050160049054906101000a900460ff1615156109b657606060405190810160405280602381526020017f596f7520617265206e6f7420656c696769626c6520666f722074686973206f6681526020017f66657200000000000000000000000000000000000000000000000000000000008152509150610a29565b60018160050160036101000a81548160ff02191690831515021790555060018160050160056101000a81548160ff0219169083151502179055506040805190810160405280601981526020017f57652061726520686170707920746f20736572766520796f750000000000000081525091505b50919050565b6060600060018460ff16141515610ad4576040517f08c379a00000000000000000000000000000000000000000000000000000000081526004018080602001828103825260218152602001807f706c6561736520636f6c6c6563742074686573652061742077696e646f77203181526020017f2e0000000000000000000000000000000000000000000000000000000000000081525060400191505060405180910390fd5b600460008460ff1660ff16815260200190815260200160002090508060050160039054906101000a900460ff1615610b6a57606060405190810160405280603b81526020017f4f75722073797374656d2069732073686f77696e67207468617420776520686181526020017f766520616c72656164792073657276656420796f752c207369722e00000000008152509150610bf1565b60018160050160036101000a81548160ff021916908315150217905550600060028460ff16811515610b9857fe5b0660ff16148160050160046101000a81548160ff0219169083151502179055506040805190810160405280601981526020017f57652061726520686170707920746f20736572766520796f750000000000000081525091505b5092915050565b60028054600181600116156101000203166002900480601f016020809104026020016040519081016040528092919081815260200182805460018160011615610100020316600290048015610c8e5780601f10610c6357610100808354040283529160200191610c8e565b820191906000526020600020905b815481529060010190602001808311610c7157829003601f168201915b505050505081565b60018054600181600116156101000203166002900480601f016020809104026020016040519081016040528092919081815260200182805460018160011615610100020316600290048015610d2c5780601f10610d0157610100808354040283529160200191610d2c565b820191906000526020600020905b815481529060010190602001808311610d0f57829003601f168201915b505050505081565b600360009054906101000a900460ff1660ff16600080549050101515610dc2576040517f08c379a00000000000000000000000000000000000000000000000000000000081526004018080602001828103825260188152602001807f57652063616e6e6f7420616464206d6f7265206d6f766965000000000000000081525060200191505060405180910390fd5b6000819080600181540180825580915050906001820390600052602060002001600090919290919091509080519060200190610dff9291906114cd565b50507f0db7565fdf52be847c3efc0b42e272a08ecc3b71d6e541888eed3f639ec8982a3382604051808373ffffffffffffffffffffffffffffffffffffffff1673ffffffffffffffffffffffffffffffffffffffff1681526020018060200180602001838103835260058152602001807f6164646564000000000000000000000000000000000000000000000000000000815250602001838103825284818151815260200191508051906020019080838360005b83811015610ece578082015181840152602081019050610eb3565b50505050905090810190601f168015610efb5780820380516001836020036101000a031916815260200191505b5094505050505060405180910390a150565b6000610f1761154d565b8760646007600101826040518082805190602001908083835b602083101515610f555780518252602082019150602081019050602083039250610f30565b6001836020036101000a038019825116818451168082178552505050505050905001915050908152602001604051809103902060010160009054906101000a900460ff1660ff16101515611037576040517f08c379a000000000000000000000000000000000000000000000000000000000815260040180806020018281038252602e8152602001807f5765206172652066756c6c207269676874206e6f772c20706c6561736520747281526020017f7920696e206e6578742073686f7700000000000000000000000000000000000081525060400191505060405180910390fd5b87600960029054906101000a900460ff1660ff168160ff16111515156110c5576040517f08c379a00000000000000000000000000000000000000000000000000000000081526004018080602001828103825260158152602001807f576520617265206f7574206f662077696e646f772e000000000000000000000081525060200191505060405180910390fd5b610160604051908101604052806006600081819054906101000a900460ff1660010191906101000a81548160ff021916908360ff160217905560ff16815260200189600381111561111257fe5b81526020018881526020018781526020018b81526020016000600281111561113657fe5b81526020018660ff168152602001600660029054906101000a900460ff16870260ff168152602001600015158152602001600015158152602001600015158152509250600960019054906101000a900460ff1660ff16600760000160019054906101000a900460ff1660ff161115156111bc576001836101200190151590811515815250505b6007600001600181819054906101000a900460ff168092919060010191906101000a81548160ff021916908360ff160217905550508260046000600660009054906101000a900460ff1660ff1660ff1681526020019081526020016000206000820151816000015560208201518160010160006101000a81548160ff0219169083600381111561124857fe5b0217905550604082015181600201908051906020019061126992919061144d565b50606082015181600301908051906020019061128692919061144d565b5060808201518160040190805190602001906112a392919061144d565b5060a08201518160050160006101000a81548160ff021916908360028111156112c857fe5b021790555060c08201518160050160016101000a81548160ff021916908360ff16021790555060e08201518160050160026101000a81548160ff021916908360ff1602179055506101008201518160050160036101000a81548160ff0219169083151502179055506101208201518160050160046101000a81548160ff0219169083151502179055506101408201518160050160056101000a81548160ff0219169083151502179055509050507f5aa0c3bd20ea3da9175bebf22e5bfda90b0ed814bb523b9ff2f7f820fcae586733600660009054906101000a900460ff16604051808373ffffffffffffffffffffffffffffffffffffffff1673ffffffffffffffffffffffffffffffffffffffff168152602001806020018360ff1660ff168152602001828103825260068152602001807f626f6f6b65640000000000000000000000000000000000000000000000000000815250602001935050505060405180910390a1600660009054906101000a900460ff1693505050509695505050505050565b828054600181600116156101000203166002900490600052602060002090601f016020900481019282601f1061148e57805160ff19168380011785556114bc565b828001600101855582156114bc579182015b828111156114bb5782518255916020019190600101906114a0565b5b5090506114c991906115ca565b5090565b828054600181600116156101000203166002900490600052602060002090601f016020900481019282601f1061150e57805160ff191683800117855561153c565b8280016001018555821561153c579182015b8281111561153b578251825591602001919060010190611520565b5b50905061154991906115ca565b5090565b61016060405190810160405280600081526020016000600381111561156e57fe5b81526020016060815260200160608152602001606081526020016000600281111561159557fe5b8152602001600060ff168152602001600060ff1681526020016000151581526020016000151581526020016000151581525090565b6115ec91905b808211156115e85760008160009055506001016115d0565b5090565b905600a165627a7a723058200143e91fa782f64141c0b86298ad5d2cb180d5574976305c5864a7572b5e9d350029",
  "source": "pragma solidity ^0.4.5;\n\ncontract Theatre {\n    enum ShowType { morning, afternoon, evening, night } //4 shows each day\n    enum SurpriseType { none, water, soda }\n    event MovieEvent(address sender, string eventType, string movie);\n    event TicketEvent(address sender, string eventType, uint8 ticket_no);\n\n    struct Ticket {\n        //below information will be printed on ticket, and can be later varified against a request for same\n        uint ticketId;                          //this can be later changed to hold any uuid or other unique number\n        ShowType showType;                      //which show\n        string customer_name;                   //customer name\n        string customer_phone;                  //customer phone\n        string movie_name;                      //movie name\n        SurpriseType surprise;                  //early bird or other kind of offer\n        //uint8 datetime;                       //movie day, here it is for current session\n        uint8 personCount;                      //for how many persons\n        uint8 totalAmount;                      //total amount\n        bool surpriseCollected;                 //water and popcorn collected\n        bool surpriseExchangeEligible;          //eligible for water soda exchange\n        bool surpriseExchanged;                 //exchange attempted\n        //uint8 [] seats;                       //seats occupied by booking, but we would assume here that it would be in sequence here\n    }\n    \n    struct Screen {\n        string movie;                           //movie name\n        uint8 seats;                            //100 here\n    }\n    \n    struct Show {\n        ShowType showType;\n        uint8 tickets;                          //for early bird and/or same offer\n        mapping (string => Screen) screens;       //no of screens\n    }\n    \n    string[] public movies;\n    string public theatre_name;                 //theatre name\n    string public theatre_location;             //theatre address\n    uint8  movie_capacity;               //how many movies it can accomodate, here it would be 5 menas 5 movies\n    mapping (uint8 => Ticket) tickets;     //tickets database\n    mapping (uint8 => Show) shows;         //show database //both tickets and show can be combined to optimize storage\n    uint8  ticketCntr;                   //to hold totalTickets, can be wiped off as soon as time expires\n    uint8  showCntr;                     //to hold show counter\n    uint8  ticketAmount;                 //ticket charges\n    Show   currentShow;                  //ease of access to current show object \n    uint8  seat_capacity;                //seat capacity in each screen/room\n    uint8  earlyBirdCounts;              //soda quantity in each show\n    uint8  windows;                      //available windows\n    \n    constructor(string theatrename, string loc) public {\n        theatre_name = theatrename;\n        movie_capacity = 5;                     //5 movies can run\n        theatre_location = loc;                 //theatre location\n        ticketAmount = 5;                       //$\n        seat_capacity = 100;                    //seat capacity\n        earlyBirdCounts = 200;                  //first 200 customers will get soda exchanged with water\n        windows = 4;                            //we have 4 windows right now\n    }\n    \n    modifier seatsAvailable(string movie) {\n        require(currentShow.screens[movie].seats < 100, \"We are full right now, please try in next show\");\n        _;\n    }\n\n    modifier validWindow(uint8 window) {\n        require(window <= windows, \"We are out of window.\");\n        _;\n    }\n\n    modifier canAddMovie() {\n        require(movies.length < movie_capacity, \"We cannot add more movie\");\n        _;\n    }\n\n    function addMovie(string movie) public canAddMovie {\n        movies.push(movie);\n        emit MovieEvent(msg.sender,\"added\", movie);\n    }\n\n    function createNewShow() public {\n        Show storage show = shows[++showCntr];\n        for(uint8 movieIndex; movieIndex < movie_capacity; movieIndex++) {\n            string storage tempMovie = movies[movieIndex];\n            show.screens[tempMovie] = Screen(tempMovie, seat_capacity);\n        }\n        currentShow = show;\n    }\n\n    function bookTicket(string movie, uint8 window, ShowType show, string cname, string cphone, uint8 persons) public \n        seatsAvailable(movie)\n        validWindow(window)\n        returns (uint8) {\n  \n        Ticket memory ticket = Ticket({\n            ticketId: ++ticketCntr,\n            showType: show,\n            customer_name: cname,\n            customer_phone: cphone,\n            movie_name: movie,\n            surprise: SurpriseType.none,\n            //datetime: now,\n            personCount: persons,\n            totalAmount: persons * ticketAmount,\n            surpriseCollected: false,\n            surpriseExchangeEligible: false,\n            surpriseExchanged: false\n        });\n\n        if(currentShow.tickets <= earlyBirdCounts) {\n            //early bird offer eligible for first 200 customers\n            ticket.surpriseExchangeEligible = true;\n        }\n        currentShow.tickets++;\n        tickets[ticketCntr] = ticket;\n        emit TicketEvent(msg.sender, 'booked', ticketCntr);\n        return ticketCntr;\n    }\n    \n    function claimSurprise(uint8 window, uint8 ticketNo) public returns (string){\n        //customer will come to window 1 and collect water bottle and popcorn\n        //this method will be called by window manager, who would scan the ticket\n        //and after scanning, he can enter ticket detail and verify ticket validity\n        //here we are passing ticket no for simplicity.\n        require(window == 1, \"please collect these at window 1.\");\n        Ticket storage ticket = tickets[ticketNo];\n        if(ticket.surpriseCollected) {\n            return \"Our system is showing that we have already served you, sir.\";\n        } \n        else {\n            //offer water bottle and pop corn to customer and mark the field\n            ticket.surpriseCollected = true;\n            //soda exchange logic\n            //lets take the ticket no as a random number \n            ticket.surpriseExchangeEligible = (ticketNo % 2 == 0);\n            return \"We are happy to serve you\";\n        }\n    }\n\n    function exchangeSurprise(uint8 ticketNo) public returns (string) {\n        //customer will come to cafeteria and get the water exchanged for soda\n        //this method will be called by cafeteria manager, who would scan the ticket\n        //and after scanning, he can enter ticket detail and verify ticket validity\n        //here we are passing ticket no for simplicity.\n        Ticket storage ticket = tickets[ticketNo];\n        if(ticket.surpriseExchanged) {\n            return \"Our system is showing that we have already served you, sir.\";\n        } else if (!ticket.surpriseExchangeEligible) {\n            return \"You are not eligible for this offer\";\n        }\n        else {\n            //offer soda and mark the field\n            ticket.surpriseCollected = true;\n            //soda exchange logic\n            //lets take the ticket no as a random number \n            ticket.surpriseExchanged = true;\n            return \"We are happy to serve you\";\n        }\n    }\n}\n\ncontract MovieBooking {\n    //this will support multiple theatres\n    mapping (string => Theatre) theatres;\n\n    function createTheater(string theatreName, string location) public {\n        Theatre theatre = new Theatre(theatreName, location);\n        theatres[theatreName] = theatre;\n    }\n\n    function addMovie(string theatre, string movie) public {\n        theatres[theatre].addMovie(movie);\n    }\n\n    function createShow(string theatre) public {\n        theatres[theatre].createNewShow();\n    }\n\n    function bookTicket(string theatre, string movie, uint8 window, Theatre.ShowType show, string cname, string cphone, uint8 persons) public {\n        theatres[theatre].bookTicket(movie, window, show, cname, cphone, persons);\n    }\n}",
  "sourcePath": "D:/blockchain/ethereumPractice/BookMyShow/contracts/Movie.sol",
  "compiler": {
    "name": "solc",
    "version": "0.4.25+commit.59dbf8f1.Emscripten.clang"
  },
  "schemaVersion": "3.0.0-beta.1",
  "updatedAt": "2018-11-03T11:48:46.532Z"
}